:100000000C9434000C9493030C9450040C9420032F
:100010000C9451000C9451000C9451000C9451001C
:100020000C9451000C9451000C9451000C947C03DE
:100030000C9451000C9451000C9451000C945100FC
:100040000C9451000C9451000C9451000C945100EC
:100050000C9451000C9451000C9451000C945100DC
:100060000C9451000C94510011241FBECFEFD8E026
:10007000DEBFCDBF11E0A0E0B1E0EEEBF1E102C0E8
:1000800005900D92AA31B107D9F721E0AAE1B1E0BC
:1000900001C01D92AE32B207E1F70E94C6020C9475
:1000A000DD080C9400005C985C9A85ED8A95F1F768
:1000B00000005C98089598B19C7F98B998B1937CA2
:1000C00098B928B134E0839FC0011124822B88B9EC
:1000D0000E9453000895CF93C82F88B18C7F88B9B0
:1000E00088B1837C88B9409A88B1837C88B998B1FB
:1000F0008C2F82958F70880F880F892B88B90E946A
:10010000530088B1837C88B988B1CF70CC0FCC0FF5
:10011000C82BC8B90E945300CF910895EF92FF9267
:100120000F931F93CF93DF93CDB7DEB728970FB60A
:10013000F894DEBF0FBECDBF88E0E2E0F1E0DE0163
:10014000119601900D928A95E1F78E010F5F1F4F76
:100150007E0189E0E80EF11CF80181918F010E9477
:100160005B008FE99FE00197F1F700C000000E15DA
:100170001F0591F728960FB6F894DEBF0FBECDBFCE
:10018000DF91CF911F910F91FF90EF900895FC01A7
:10019000892BA9F140E050E0CA01880F991F440F54
:1001A000551F440F551F440F551F480F591F9F01DE
:1001B000ADECBCEC0E94CE089695879596958795F8
:1001C000969587959C01220F331F880F991F880FE2
:1001D000991F880F991F820F931F9F01281B390BAE
:1001E000420F531F9F010E94CE08FC01F695E79530
:1001F000F695E795F695E795309771F602C040E0E1
:1002000050E0CA0108959C01892BA9F040E050E01C
:100210004F5F5F4FADECBCEC0E94CE089C01369561
:10022000279536952795369527952115310581F720
:10023000842F952F089581E090E00895EF92FF922A
:100240000F931F93CF93DF937C01992334F48DE2B6
:100250000E946B00F194E194F108C7010E94C7006D
:10026000EC01C7010E9403018C01209769F19E01F6
:10027000ADECBCEC0E94CE08969587959695879537
:10028000969587959C01220F331F880F991F880F21
:10029000991F880F991F820F931F9E01281B390BEE
:1002A000C901805D0E946B009E01ADECBCEC0E9418
:1002B000CE08EC01D695C795D695C795D695C79526
:1002C00001501109209799F60115110549F4EF28FD
:1002D00071F010C080E30E946B002197D9F70AC02B
:1002E00080E30E946B00E8012197A1F703C080E33F
:1002F0000E946B00DF91CF911F910F91FF90EF90C3
:100300000895CF93DF93EC018881882331F0219603
:100310000E946B0089918111FBCFDF91CF910895ED
:100320008F929F92AF92BF92CF92DF92EF92FF9205
:100330004B015C0120E030E0A9010E94FD0688230A
:100340003CF48DE20E946B00B7FAB094B7F8B09419
:10035000C501B4010E9474076B017C01CB010E94AE
:100360001E01B601DD0C880B990B0E94AC079B01A6
:10037000AC01C501B4010E94900620E030E44CE1DC
:1003800056E40E9461080E9474076B017C018EE2B2
:100390000E946B0088EEC81683E0D80604F580E062
:1003A00090E00E941E0184E6C816D104A4F480E007
:1003B00090E00E941E018AE0C816D10444F480E057
:1003C00090E00E941E01C6010E941E010BC0C601E2
:1003D0000E941E0107C0C6010E941E0103C0C60183
:1003E0000E941E01FF90EF90DF90CF90BF90AF90E2
:1003F0009F908F900895CF93C82F82958F70885FBC
:100400000E945B008C2F8F700E945B00CF9108953B
:1004100080E00E94FB018AE091E00E9481018CE073
:100420000E94FB018DE091E00E94810184E10E9425
:10043000FB0182E191E00E94810180E20E94FB01C8
:1004400085E191E00E9481010895CF92DF92EF92C1
:10045000FF92CF93DF936B017C010E947407CB0165
:100460000E940301EC0186E10E94FB01C701B60175
:100470000E94900120E030E0A901C701B6010E946E
:10048000FD06882314F06B9601C06C968C2F0E9499
:10049000FB01C032D10538F480E20E946B00219646
:1004A000C032D105C9F7DF91CF91FF90EF90DF9077
:1004B000CF900895CF92DF92EF92FF92CF93DF9388
:1004C0006B017C010E947407CB010E940301EC01C7
:1004D000279682E00E94FB01C701B6010E949001AD
:1004E0008C2F0E94FB01CC30D10538F480E20E94B1
:1004F0006B002196CC30D105C9F7DF91CF91FF90E9
:10050000EF90DF90CF9008950F931F93CF93DF93D9
:100510008C010E940301EC01609680E10E94FB01C6
:10052000C8010E941E018C2F0E94FB01C431D1051D
:1005300038F480E20E946B002196C431D105C9F7DE
:10054000DF91CF911F910F9108950F931F93CF9338
:10055000DF938C010E940301EC01A49684E20E94C7
:10056000FB01C8010E941E018C2F0E94FB01C832B2
:10057000D10538F480E20E946B002196C832D10583
:10058000C9F7DF91CF911F910F910895CF93DF931A
:1005900000D000D0CDB7DEB70E940D050E948E00BE
:1005A0000E9408020E94740519821A821B821C8212
:1005B000E12CF12C60912C0170912D0180911C0196
:1005C00090911D010E948E05082F192F60912A011C
:1005D00070912B0180911C0190911D010E94850555
:1005E0000E946605AE014F5F5F4F6E2D7F2D802FFD
:1005F000912F0E949F050E946305609126017091D2
:10060000270180912801909129010E945A0260914E
:100610001E0170911F0180912001909121010E9483
:10062000250280912A0190912B010E9484028091E1
:100630001A0190911B010E94A502E02EF12EBACF63
:100640001F920F920FB60F9211242F933F934F9347
:100650005F936F937F938F939F93AF93BF93EF932A
:10066000FF93189916C080911A0190911B01CE97A3
:1006700039F48EE390E090931B0180931A0109C036
:1006800080911A0190911B01019690931B01809318
:100690001A01199914C080911A0190911B01892B9C
:1006A00029F410921B0110921A0109C080911A01BD
:1006B00090911B01019790931B0180931A011A9945
:1006C0000AC080911A0190911B0190931D018093A3
:1006D0001C010E942705FF91EF91BF91AF919F915F
:1006E0008F917F916F915F914F913F912F910F90DB
:1006F0000FBE0F901F9018951F920F920FB60F927A
:1007000011248F939F938091000190910101019694
:1007100090930101809300019F918F910F900FBEE4
:100720000F901F9018951F920F920FB60F921124E1
:100730008F929F92AF92BF92CF92DF92EF92FF92F1
:100740002F933F934F935F936F937F938F939F93D9
:10075000AF93BF93CF93DF93EF93FF934B9985C0F4
:100760000E94420580912C0190912D010196909359
:100770002D0180932C0180912C0190912D019923C2
:100780000CF401969595879590932B0180932A01FF
:100790008091260190912701A0912801B091290113
:1007A0008093220190932301A0932401B09325010B
:1007B000609100017091010180E090E00E94AA0721
:1007C0009B01AC016FEF7FEF87E491E40E94020789
:1007D000609326017093270180932801909329014B
:1007E0006091260170912701809128019091290143
:1007F0008090220190902301A0902401B0902501C7
:10080000C0910001D091010120E030E543EC57E4B4
:100810000E9461086B017C0120E030E543EC57E465
:10082000C501B4010E9461089B01AC01C701B6017A
:100830000E9490066B017C01BE0180E090E00E9466
:10084000AA079B01AC01C701B6010E940207609391
:100850001E0170931F01809320019093210110923B
:100860000101109200010E943C05FF91EF91DF9180
:10087000CF91BF91AF919F918F917F916F915F9138
:100880004F913F912F91FF90EF90DF90CF90BF90CD
:10089000AF909F908F900F900FBE0F901F90189564
:1008A0001F920F920FB60F9211248F929F92AF92C8
:1008B000BF92CF92DF92EF92FF922F933F934F938D
:1008C0005F936F937F938F939F93AF93BF93CF93D8
:1008D000DF93EF93FF934A9985C00E944205809170
:1008E0002C0190912D01019790932D0180932C0163
:1008F00080912C0190912D0199230CF401969595EE
:10090000879590932B0180932A01809126019091E5
:100910002701A0912801B091290180932201909391
:100920002301A0932401B0932501609100017091EF
:10093000010180E090E00E94AA079B01AC016FEFEB
:100940007FEF87E491E40E94020760932601709391
:1009500027018093280190932901609126017091CD
:100960002701809128019091290180902201909087
:100970002301A0902401B0902501C0910001D091E5
:10098000010120E030E543EC57E40E9461086B016F
:100990007C0120E030E543EC57E4C501B4010E943E
:1009A00061089B01AC01C701B6010E9490066B0172
:1009B0007C01BE0180E090E00E94AA079B01AC018F
:1009C000C701B6010E94020760931E0170931F01C8
:1009D0008093200190932101109201011092000157
:1009E0000E943C05FF91EF91DF91CF91BF91AF91B4
:1009F0009F918F917F916F915F914F913F912F9137
:100A0000FF90EF90DF90CF90BF90AF909F908F902E
:100A10000F900FBE0F901F90189587B1836087B914
:100A200087B18C6387B9549A559A8AB1806C8AB918
:100A30005298539888EF84B9089584B5836384BD30
:100A400085B5886085BD8FEF87BD88BD089585B564
:100A5000846085BD0895E1E8F0E08081886080834E
:100A6000109289008FE9809388000895EFE6F0E006
:100A70008081826080830895E1E8F0E08081816078
:100A800080830895E1E8F0E08081887F8083089585
:100A90005298E9E6F0E0808183608083E89A0895C7
:100AA0005398E9E6F0E080818C608083E99A0895AC
:100AB000EBE6F0E0808187608083E8E6F0E080810B
:100AC000816080830895809588BD0895813029F4E0
:100AD0008BB18F738BB95E9A0895811104C08BB16D
:100AE0008F738BB95F9A089580E00E9466050E941B
:100AF0002B050E9436050E941D050E9448050E9494
:100B000050050E9458057894089521E030E0681758
:100B1000790714F020E030E0C90108958F33910582
:100B200024F49C01220F331F02C02CE730E09923EC
:100B300014F420E030E0C901861B970B08952F9232
:100B40003F924F925F926F927F928F929F92AF925D
:100B5000BF92CF92DF92EF92FF920F931F93CF93AA
:100B6000DF93EC011B018A01FA01C080D180E28091
:100B7000F380BC01990F880B990B0E94AC074B01C5
:100B80005C0120E030E040E05FE30E9461082B015F
:100B90003C0120E030E040E850E4C701B6010E948B
:100BA000FD068823F4F420E030E040E850ECC70173
:100BB000B6010E945C081816C4F42097D1F0A50174
:100BC0009401C701B6010E9491066B017C0125E5E5
:100BD00035E545E052E40E945C0818160CF476C036
:100BE0006AC0C12CD12C760107C0C12CD12C760152
:100BF00003C0C12CD12C7601F801C082D182E282DF
:100C0000F3822AE939E949E15EE3C701B6010E94AE
:100C100061086B017C01209789F0C219D309BE01DC
:100C2000DD0F880B990B0E94AC0720E030E040E01C
:100C30005FE30E9461084B015C0103C0812C912C91
:100C40005401A7019601C301B2010E949106A501BA
:100C500094010E9491066B017C0120E030E0A90123
:100C60000E94FD06882324F4F7FAF094F7F8F09434
:100C7000C701B6010E9474076F3F7105C9F1C4F145
:100C80000F2EC12CD12CFFE7EF2EF3E4FF2EF02D19
:100C90002FC085E595E5A5E0B2ECF801808391834E
:100CA000A283B3830F2EC12CD12CF0EAEF2EF0ECEF
:100CB000FF2EF02DB2CF25E535E545E052ECC7011A
:100CC000B6010E94FD06882324F396CF85E595E5BD
:100CD000A5E0B2E4F80180839183A283B3830F2E51
:100CE000C12CD12CF0EAEF2EF0E4FF2EF02D95CFA1
:100CF000C701B6010E947407CB01DF91CF911F910C
:100D00000F91FF90EF90DF90CF90BF90AF909F90AA
:100D10008F907F906F905F904F903F902F900895AD
:100D20005058BB27AA270E94A8060C9422080E94AC
:100D3000140838F00E941B0820F039F49F3F19F482
:100D400026F40C9411080EF4E095E7FB0C940B08C4
:100D5000E92F0E94330858F3BA1762077307840714
:100D6000950720F079F4A6F50C9455080EF4E0955B
:100D70000B2EBA2FA02D0B01B90190010C01CA0155
:100D8000A0011124FF27591B99F0593F50F4503E00
:100D900068F11A16F040A22F232F342F4427585FF2
:100DA000F3CF469537952795A795F0405395C9F70A
:100DB0007EF41F16BA0B620B730B840BBAF09150C2
:100DC000A1F0FF0FBB1F661F771F881FC2F70EC061
:100DD000BA0F621F731F841F48F487957795679534
:100DE000B795F7959E3F08F0B0CF9395880F08F020
:100DF0009927EE0F9795879508950E94E70708F4C5
:100E000081E008950E9416070C9422080E941B0896
:100E100058F00E94140840F029F45F3F29F00C9428
:100E20000B0851110C9456080C9411080E943308B9
:100E300068F39923B1F3552391F3951B550BBB2709
:100E4000AA2762177307840738F09F5F5F4F220F4E
:100E5000331F441FAA1FA9F335D00E2E3AF0E0E845
:100E600032D091505040E695001CCAF72BD0FE2F8F
:100E700029D0660F771F881FBB1F26173707480723
:100E8000AB07B0E809F0BB0B802DBF01FF279358DB
:100E90005F4F3AF09E3F510578F00C940B080C948C
:100EA00056085F3FE4F3983ED4F3869577956795AF
:100EB000B795F7959F5FC9F7880F911D9695879510
:100EC00097F90895E1E0660F771F881FBB1F62172F
:100ED00073078407BA0720F0621B730B840BBA0BED
:100EE000EE1F88F7E09508950E947B076894B11182
:100EF0000C94560808950E943B0888F09F5798F07C
:100F0000B92F9927B751B0F0E1F0660F771F881F0E
:100F1000991F1AF0BA95C9F714C0B13091F00E9428
:100F20005508B1E008950C945508672F782F88274D
:100F3000B85F39F0B93FCCF3869577956795B3954F
:100F4000D9F73EF490958095709561957F4F8F4FBE
:100F50009F4F0895E89409C097FB3EF490958095C3
:100F6000709561957F4F8F4F9F4F9923A9F0F92F6F
:100F700096E9BB279395F695879577956795B795ED
:100F8000F111F8CFFAF4BB0F11F460FF1BC06F5FD3
:100F90007F4F8F4F9F4F16C0882311F096E911C0E5
:100FA000772321F09EE8872F762F05C0662371F006
:100FB00096E8862F70E060E02AF09A95660F771F1A
:100FC000881FDAF7880F9695879597F90895990FF6
:100FD0000008550FAA0BE0E8FEEF16161706E80703
:100FE000F907C0F012161306E407F50798F0621B24
:100FF000730B840B950B39F40A2661F0232B242BF9
:10100000252B21F408950A2609F4A140A6958FEF17
:10101000811D811D089597F99F6780E870E060E069
:1010200008959FEF80EC089500240A941616170681
:1010300018060906089500240A94121613061406C9
:1010400005060895092E0394000C11F4882352F02C
:10105000BB0F40F4BF2B11F460FF04C06F5F7F4FE4
:101060008F4F9F4F089557FD9058440F551F59F0CB
:101070005F3F71F04795880F97FB991F61F09F3F85
:1010800079F087950895121613061406551FF2CFAE
:101090004695F1DF08C0161617061806991FF1CFFE
:1010A00086957105610508940895E894BB27662725
:1010B0007727CB0197F908950E94E70708F48FEF8F
:1010C00008950E9474080C9422080E94140838F0B5
:1010D0000E941B0820F0952311F00C940B080C942F
:1010E000110811240C9456080E94330870F3959F40
:1010F000C1F3950F50E0551F629FF001729FBB270F
:10110000F00DB11D639FAA27F00DB11DAA1F649FAA
:101110006627B00DA11D661F829F2227B00DA11D5D
:10112000621F739FB00DA11D621F839FA00D611DE3
:10113000221F749F3327A00D611D231F849F600D04
:10114000211D822F762F6A2F11249F5750409AF02D
:10115000F1F088234AF0EE0FFF1FBB1F661F771FB9
:10116000881F91505040A9F79E3F510580F00C9484
:101170000B080C9456085F3FE4F3983ED4F3869531
:1011800077956795B795F795E7959F5FC1F7FE2B24
:10119000880F911D9695879597F90895A29FB001A4
:1011A000B39FC001A39F700D811D1124911DB29F9B
:0E11B000700D811D1124911D0895F894FFCF3C
:1011BE000100030303020201000C563A00506F7344
:0A11CE003A00413A005265663A000B
:00000001FF
